{
  "_format": "hh-sol-artifact-1",
  "contractName": "Metaverse",
  "sourceName": "contracts/Metaverse.sol",
  "abi": [
    {
      "inputs": [],
      "stateMutability": "nonpayable",
      "type": "constructor"
    },
    {
      "inputs": [
        {
          "internalType": "address",
          "name": "sender",
          "type": "address"
        },
        {
          "internalType": "uint256",
          "name": "tokenId",
          "type": "uint256"
        },
        {
          "internalType": "address",
          "name": "owner",
          "type": "address"
        }
      ],
      "name": "ERC721IncorrectOwner",
      "type": "error"
    },
    {
      "inputs": [
        {
          "internalType": "address",
          "name": "operator",
          "type": "address"
        },
        {
          "internalType": "uint256",
          "name": "tokenId",
          "type": "uint256"
        }
      ],
      "name": "ERC721InsufficientApproval",
      "type": "error"
    },
    {
      "inputs": [
        {
          "internalType": "address",
          "name": "approver",
          "type": "address"
        }
      ],
      "name": "ERC721InvalidApprover",
      "type": "error"
    },
    {
      "inputs": [
        {
          "internalType": "address",
          "name": "operator",
          "type": "address"
        }
      ],
      "name": "ERC721InvalidOperator",
      "type": "error"
    },
    {
      "inputs": [
        {
          "internalType": "address",
          "name": "owner",
          "type": "address"
        }
      ],
      "name": "ERC721InvalidOwner",
      "type": "error"
    },
    {
      "inputs": [
        {
          "internalType": "address",
          "name": "receiver",
          "type": "address"
        }
      ],
      "name": "ERC721InvalidReceiver",
      "type": "error"
    },
    {
      "inputs": [
        {
          "internalType": "address",
          "name": "sender",
          "type": "address"
        }
      ],
      "name": "ERC721InvalidSender",
      "type": "error"
    },
    {
      "inputs": [
        {
          "internalType": "uint256",
          "name": "tokenId",
          "type": "uint256"
        }
      ],
      "name": "ERC721NonexistentToken",
      "type": "error"
    },
    {
      "inputs": [
        {
          "internalType": "address",
          "name": "owner",
          "type": "address"
        }
      ],
      "name": "OwnableInvalidOwner",
      "type": "error"
    },
    {
      "inputs": [
        {
          "internalType": "address",
          "name": "account",
          "type": "address"
        }
      ],
      "name": "OwnableUnauthorizedAccount",
      "type": "error"
    },
    {
      "anonymous": false,
      "inputs": [
        {
          "indexed": true,
          "internalType": "address",
          "name": "owner",
          "type": "address"
        },
        {
          "indexed": true,
          "internalType": "address",
          "name": "approved",
          "type": "address"
        },
        {
          "indexed": true,
          "internalType": "uint256",
          "name": "tokenId",
          "type": "uint256"
        }
      ],
      "name": "Approval",
      "type": "event"
    },
    {
      "anonymous": false,
      "inputs": [
        {
          "indexed": true,
          "internalType": "address",
          "name": "owner",
          "type": "address"
        },
        {
          "indexed": true,
          "internalType": "address",
          "name": "operator",
          "type": "address"
        },
        {
          "indexed": false,
          "internalType": "bool",
          "name": "approved",
          "type": "bool"
        }
      ],
      "name": "ApprovalForAll",
      "type": "event"
    },
    {
      "anonymous": false,
      "inputs": [
        {
          "indexed": true,
          "internalType": "address",
          "name": "previousOwner",
          "type": "address"
        },
        {
          "indexed": true,
          "internalType": "address",
          "name": "newOwner",
          "type": "address"
        }
      ],
      "name": "OwnershipTransferred",
      "type": "event"
    },
    {
      "anonymous": false,
      "inputs": [
        {
          "indexed": true,
          "internalType": "address",
          "name": "from",
          "type": "address"
        },
        {
          "indexed": true,
          "internalType": "address",
          "name": "to",
          "type": "address"
        },
        {
          "indexed": true,
          "internalType": "uint256",
          "name": "tokenId",
          "type": "uint256"
        }
      ],
      "name": "Transfer",
      "type": "event"
    },
    {
      "inputs": [
        {
          "internalType": "address",
          "name": "to",
          "type": "address"
        },
        {
          "internalType": "uint256",
          "name": "tokenId",
          "type": "uint256"
        }
      ],
      "name": "approve",
      "outputs": [],
      "stateMutability": "nonpayable",
      "type": "function"
    },
    {
      "inputs": [
        {
          "internalType": "address",
          "name": "owner",
          "type": "address"
        }
      ],
      "name": "balanceOf",
      "outputs": [
        {
          "internalType": "uint256",
          "name": "",
          "type": "uint256"
        }
      ],
      "stateMutability": "view",
      "type": "function"
    },
    {
      "inputs": [],
      "name": "cost",
      "outputs": [
        {
          "internalType": "uint256",
          "name": "",
          "type": "uint256"
        }
      ],
      "stateMutability": "view",
      "type": "function"
    },
    {
      "inputs": [
        {
          "internalType": "uint256",
          "name": "tokenId",
          "type": "uint256"
        }
      ],
      "name": "getApproved",
      "outputs": [
        {
          "internalType": "address",
          "name": "",
          "type": "address"
        }
      ],
      "stateMutability": "view",
      "type": "function"
    },
    {
      "inputs": [],
      "name": "getObjects",
      "outputs": [
        {
          "components": [
            {
              "internalType": "string",
              "name": "name",
              "type": "string"
            },
            {
              "internalType": "int8",
              "name": "w",
              "type": "int8"
            },
            {
              "internalType": "int8",
              "name": "h",
              "type": "int8"
            },
            {
              "internalType": "int8",
              "name": "d",
              "type": "int8"
            },
            {
              "internalType": "int8",
              "name": "x",
              "type": "int8"
            },
            {
              "internalType": "int8",
              "name": "y",
              "type": "int8"
            },
            {
              "internalType": "int8",
              "name": "z",
              "type": "int8"
            },
            {
              "internalType": "int8",
              "name": "w2",
              "type": "int8"
            }
          ],
          "internalType": "struct Metaverse.Object[]",
          "name": "",
          "type": "tuple[]"
        }
      ],
      "stateMutability": "view",
      "type": "function"
    },
    {
      "inputs": [],
      "name": "getOwnerObjects",
      "outputs": [
        {
          "components": [
            {
              "internalType": "string",
              "name": "name",
              "type": "string"
            },
            {
              "internalType": "int8",
              "name": "w",
              "type": "int8"
            },
            {
              "internalType": "int8",
              "name": "h",
              "type": "int8"
            },
            {
              "internalType": "int8",
              "name": "d",
              "type": "int8"
            },
            {
              "internalType": "int8",
              "name": "x",
              "type": "int8"
            },
            {
              "internalType": "int8",
              "name": "y",
              "type": "int8"
            },
            {
              "internalType": "int8",
              "name": "z",
              "type": "int8"
            },
            {
              "internalType": "int8",
              "name": "w2",
              "type": "int8"
            }
          ],
          "internalType": "struct Metaverse.Object[]",
          "name": "",
          "type": "tuple[]"
        }
      ],
      "stateMutability": "view",
      "type": "function"
    },
    {
      "inputs": [
        {
          "internalType": "address",
          "name": "owner",
          "type": "address"
        },
        {
          "internalType": "address",
          "name": "operator",
          "type": "address"
        }
      ],
      "name": "isApprovedForAll",
      "outputs": [
        {
          "internalType": "bool",
          "name": "",
          "type": "bool"
        }
      ],
      "stateMutability": "view",
      "type": "function"
    },
    {
      "inputs": [],
      "name": "maxSupply",
      "outputs": [
        {
          "internalType": "uint256",
          "name": "",
          "type": "uint256"
        }
      ],
      "stateMutability": "view",
      "type": "function"
    },
    {
      "inputs": [
        {
          "internalType": "int8",
          "name": "shape",
          "type": "int8"
        },
        {
          "internalType": "int8",
          "name": "position",
          "type": "int8"
        },
        {
          "internalType": "int8",
          "name": "position1",
          "type": "int8"
        }
      ],
      "name": "mint",
      "outputs": [],
      "stateMutability": "payable",
      "type": "function"
    },
    {
      "inputs": [],
      "name": "name",
      "outputs": [
        {
          "internalType": "string",
          "name": "",
          "type": "string"
        }
      ],
      "stateMutability": "view",
      "type": "function"
    },
    {
      "inputs": [
        {
          "internalType": "uint256",
          "name": "",
          "type": "uint256"
        }
      ],
      "name": "objects",
      "outputs": [
        {
          "internalType": "string",
          "name": "name",
          "type": "string"
        },
        {
          "internalType": "int8",
          "name": "w",
          "type": "int8"
        },
        {
          "internalType": "int8",
          "name": "h",
          "type": "int8"
        },
        {
          "internalType": "int8",
          "name": "d",
          "type": "int8"
        },
        {
          "internalType": "int8",
          "name": "x",
          "type": "int8"
        },
        {
          "internalType": "int8",
          "name": "y",
          "type": "int8"
        },
        {
          "internalType": "int8",
          "name": "z",
          "type": "int8"
        },
        {
          "internalType": "int8",
          "name": "w2",
          "type": "int8"
        }
      ],
      "stateMutability": "view",
      "type": "function"
    },
    {
      "inputs": [],
      "name": "owner",
      "outputs": [
        {
          "internalType": "address",
          "name": "",
          "type": "address"
        }
      ],
      "stateMutability": "view",
      "type": "function"
    },
    {
      "inputs": [
        {
          "internalType": "uint256",
          "name": "tokenId",
          "type": "uint256"
        }
      ],
      "name": "ownerOf",
      "outputs": [
        {
          "internalType": "address",
          "name": "",
          "type": "address"
        }
      ],
      "stateMutability": "view",
      "type": "function"
    },
    {
      "inputs": [],
      "name": "renounceOwnership",
      "outputs": [],
      "stateMutability": "nonpayable",
      "type": "function"
    },
    {
      "inputs": [
        {
          "internalType": "address",
          "name": "from",
          "type": "address"
        },
        {
          "internalType": "address",
          "name": "to",
          "type": "address"
        },
        {
          "internalType": "uint256",
          "name": "tokenId",
          "type": "uint256"
        }
      ],
      "name": "safeTransferFrom",
      "outputs": [],
      "stateMutability": "nonpayable",
      "type": "function"
    },
    {
      "inputs": [
        {
          "internalType": "address",
          "name": "from",
          "type": "address"
        },
        {
          "internalType": "address",
          "name": "to",
          "type": "address"
        },
        {
          "internalType": "uint256",
          "name": "tokenId",
          "type": "uint256"
        },
        {
          "internalType": "bytes",
          "name": "data",
          "type": "bytes"
        }
      ],
      "name": "safeTransferFrom",
      "outputs": [],
      "stateMutability": "nonpayable",
      "type": "function"
    },
    {
      "inputs": [
        {
          "internalType": "address",
          "name": "operator",
          "type": "address"
        },
        {
          "internalType": "bool",
          "name": "approved",
          "type": "bool"
        }
      ],
      "name": "setApprovalForAll",
      "outputs": [],
      "stateMutability": "nonpayable",
      "type": "function"
    },
    {
      "inputs": [
        {
          "internalType": "bytes4",
          "name": "interfaceId",
          "type": "bytes4"
        }
      ],
      "name": "supportsInterface",
      "outputs": [
        {
          "internalType": "bool",
          "name": "",
          "type": "bool"
        }
      ],
      "stateMutability": "view",
      "type": "function"
    },
    {
      "inputs": [],
      "name": "symbol",
      "outputs": [
        {
          "internalType": "string",
          "name": "",
          "type": "string"
        }
      ],
      "stateMutability": "view",
      "type": "function"
    },
    {
      "inputs": [
        {
          "internalType": "uint256",
          "name": "tokenId",
          "type": "uint256"
        }
      ],
      "name": "tokenURI",
      "outputs": [
        {
          "internalType": "string",
          "name": "",
          "type": "string"
        }
      ],
      "stateMutability": "view",
      "type": "function"
    },
    {
      "inputs": [],
      "name": "totalSupply",
      "outputs": [
        {
          "internalType": "uint256",
          "name": "",
          "type": "uint256"
        }
      ],
      "stateMutability": "view",
      "type": "function"
    },
    {
      "inputs": [
        {
          "internalType": "address",
          "name": "from",
          "type": "address"
        },
        {
          "internalType": "address",
          "name": "to",
          "type": "address"
        },
        {
          "internalType": "uint256",
          "name": "tokenId",
          "type": "uint256"
        }
      ],
      "name": "transferFrom",
      "outputs": [],
      "stateMutability": "nonpayable",
      "type": "function"
    },
    {
      "inputs": [
        {
          "internalType": "address",
          "name": "newOwner",
          "type": "address"
        }
      ],
      "name": "transferOwnership",
      "outputs": [],
      "stateMutability": "nonpayable",
      "type": "function"
    },
    {
      "inputs": [],
      "name": "withdraw",
      "outputs": [],
      "stateMutability": "payable",
      "type": "function"
    }
  ],
  "bytecode": "0x608060405260646008556103e86009553480156200001c57600080fd5b50336040518060400160405280600481526020017f4d455441000000000000000000000000000000000000000000000000000000008152506040518060400160405280600381526020017f4d5441000000000000000000000000000000000000000000000000000000000081525081600090816200009b91906200047d565b508060019081620000ad91906200047d565b505050600073ffffffffffffffffffffffffffffffffffffffff168173ffffffffffffffffffffffffffffffffffffffff1603620001255760006040517f1e4fbdf70000000000000000000000000000000000000000000000000000000081526004016200011c9190620005a9565b60405180910390fd5b62000136816200013d60201b60201c565b50620005c6565b6000600660009054906101000a900473ffffffffffffffffffffffffffffffffffffffff16905081600660006101000a81548173ffffffffffffffffffffffffffffffffffffffff021916908373ffffffffffffffffffffffffffffffffffffffff1602179055508173ffffffffffffffffffffffffffffffffffffffff168173ffffffffffffffffffffffffffffffffffffffff167f8be0079c531659141344cd1fd0a4f28419497f9722a3daafe3b4186f6b6457e060405160405180910390a35050565b600081519050919050565b7f4e487b7100000000000000000000000000000000000000000000000000000000600052604160045260246000fd5b7f4e487b7100000000000000000000000000000000000000000000000000000000600052602260045260246000fd5b600060028204905060018216806200028557607f821691505b6020821081036200029b576200029a6200023d565b5b50919050565b60008190508160005260206000209050919050565b60006020601f8301049050919050565b600082821b905092915050565b600060088302620003057fffffffffffffffffffffffffffffffffffffffffffffffffffffffffffffffff82620002c6565b620003118683620002c6565b95508019841693508086168417925050509392505050565b6000819050919050565b6000819050919050565b60006200035e62000358620003528462000329565b62000333565b62000329565b9050919050565b6000819050919050565b6200037a836200033d565b62000392620003898262000365565b848454620002d3565b825550505050565b600090565b620003a96200039a565b620003b68184846200036f565b505050565b5b81811015620003de57620003d26000826200039f565b600181019050620003bc565b5050565b601f8211156200042d57620003f781620002a1565b6200040284620002b6565b8101602085101562000412578190505b6200042a6200042185620002b6565b830182620003bb565b50505b505050565b600082821c905092915050565b6000620004526000198460080262000432565b1980831691505092915050565b60006200046d83836200043f565b9150826002028217905092915050565b620004888262000203565b67ffffffffffffffff811115620004a457620004a36200020e565b5b620004b082546200026c565b620004bd828285620003e2565b600060209050601f831160018114620004f55760008415620004e0578287015190505b620004ec85826200045f565b8655506200055c565b601f1984166200050586620002a1565b60005b828110156200052f5784890151825560018201915060208501945060208101905062000508565b868310156200054f57848901516200054b601f8916826200043f565b8355505b6001600288020188555050505b505050505050565b600073ffffffffffffffffffffffffffffffffffffffff82169050919050565b6000620005918262000564565b9050919050565b620005a38162000584565b82525050565b6000602082019050620005c0600083018462000598565b92915050565b61371780620005d66000396000f3fe60806040526004361061014b5760003560e01c8063640784be116100b6578063b88d4fde1161006f578063b88d4fde14610452578063c87b56dd1461047b578063d5abeb01146104b8578063e985e9c5146104e3578063ed17585014610520578063f2fde38b146105645761014b565b8063640784be1461035457806370a082311461037f578063715018a6146103bc5780638da5cb5b146103d357806395d89b41146103fe578063a22cb465146104295761014b565b806318160ddd1161010857806318160ddd146102745780632292882e1461029f57806323b872dd146102bb5780633ccfd60b146102e457806342842e0e146102ee5780636352211e146103175761014b565b806301ffc9a71461015057806306fdde031461018d578063081812fc146101b8578063095ea7b3146101f557806313faede61461021e5780631665ff7c14610249575b600080fd5b34801561015c57600080fd5b50610177600480360381019061017291906127d3565b61058d565b604051610184919061281b565b60405180910390f35b34801561019957600080fd5b506101a261066f565b6040516101af91906128c6565b60405180910390f35b3480156101c457600080fd5b506101df60048036038101906101da919061291e565b610701565b6040516101ec919061298c565b60405180910390f35b34801561020157600080fd5b5061021c600480360381019061021791906129d3565b61071d565b005b34801561022a57600080fd5b50610233610733565b6040516102409190612a22565b60405180910390f35b34801561025557600080fd5b5061025e610739565b60405161026b9190612c15565b60405180910390f35b34801561028057600080fd5b506102896108f6565b6040516102969190612a22565b60405180910390f35b6102b960048036038101906102b49190612c63565b610900565b005b3480156102c757600080fd5b506102e260048036038101906102dd9190612cb6565b611092565b005b6102ec611194565b005b3480156102fa57600080fd5b5061031560048036038101906103109190612cb6565b6111f2565b005b34801561032357600080fd5b5061033e6004803603810190610339919061291e565b611212565b60405161034b919061298c565b60405180910390f35b34801561036057600080fd5b50610369611224565b6040516103769190612c15565b60405180910390f35b34801561038b57600080fd5b506103a660048036038101906103a19190612d09565b61141e565b6040516103b39190612a22565b60405180910390f35b3480156103c857600080fd5b506103d16114d8565b005b3480156103df57600080fd5b506103e86114ec565b6040516103f5919061298c565b60405180910390f35b34801561040a57600080fd5b50610413611516565b60405161042091906128c6565b60405180910390f35b34801561043557600080fd5b50610450600480360381019061044b9190612d62565b6115a8565b005b34801561045e57600080fd5b5061047960048036038101906104749190612ed7565b6115be565b005b34801561048757600080fd5b506104a2600480360381019061049d919061291e565b6115db565b6040516104af91906128c6565b60405180910390f35b3480156104c457600080fd5b506104cd611644565b6040516104da9190612a22565b60405180910390f35b3480156104ef57600080fd5b5061050a60048036038101906105059190612f5a565b61164a565b604051610517919061281b565b60405180910390f35b34801561052c57600080fd5b506105476004803603810190610542919061291e565b6116de565b60405161055b989796959493929190612fa9565b60405180910390f35b34801561057057600080fd5b5061058b60048036038101906105869190612d09565b611819565b005b60007f80ac58cd000000000000000000000000000000000000000000000000000000007bffffffffffffffffffffffffffffffffffffffffffffffffffffffff1916827bffffffffffffffffffffffffffffffffffffffffffffffffffffffff1916148061065857507f5b5e139f000000000000000000000000000000000000000000000000000000007bffffffffffffffffffffffffffffffffffffffffffffffffffffffff1916827bffffffffffffffffffffffffffffffffffffffffffffffffffffffff1916145b8061066857506106678261189f565b5b9050919050565b60606000805461067e9061305d565b80601f01602080910402602001604051908101604052809291908181526020018280546106aa9061305d565b80156106f75780601f106106cc576101008083540402835291602001916106f7565b820191906000526020600020905b8154815290600101906020018083116106da57829003601f168201915b5050505050905090565b600061070c82611909565b5061071682611991565b9050919050565b61072f828261072a6119ce565b6119d6565b5050565b60095481565b6060600b805480602002602001604051908101604052809291908181526020016000905b828210156108ed5783829060005260206000209060020201604051806101000160405290816000820180546107919061305d565b80601f01602080910402602001604051908101604052809291908181526020018280546107bd9061305d565b801561080a5780601f106107df5761010080835404028352916020019161080a565b820191906000526020600020905b8154815290600101906020018083116107ed57829003601f168201915b505050505081526020016001820160009054906101000a900460000b60000b60000b81526020016001820160019054906101000a900460000b60000b60000b81526020016001820160029054906101000a900460000b60000b60000b81526020016001820160039054906101000a900460000b60000b60000b81526020016001820160049054906101000a900460000b60000b60000b81526020016001820160059054906101000a900460000b60000b60000b81526020016001820160069054906101000a900460000b60000b60000b815250508152602001906001019061075d565b50505050905090565b6000600754905090565b6008546007541115610947576040517f08c379a000000000000000000000000000000000000000000000000000000000815260040161093e906130da565b60405180910390fd5b60095434101561098c576040517f08c379a000000000000000000000000000000000000000000000000000000000815260040161098390613146565b60405180910390fd5b60018360000b121580156109a4575060038360000b13155b6109e3576040517f08c379a00000000000000000000000000000000000000000000000000000000081526004016109da906131b2565b60405180910390fd5b7fffffffffffffffffffffffffffffffffffffffffffffffffffffffffffffffce8260000b12158015610a1a575060328260000b13155b610a59576040517f08c379a0000000000000000000000000000000000000000000000000000000008152600401610a50906131b2565b60405180910390fd5b7fffffffffffffffffffffffffffffffffffffffffffffffffffffffffffffffce8160000b12158015610a90575060328160000b13155b610acf576040517f08c379a0000000000000000000000000000000000000000000000000000000008152600401610ac6906131b2565b60405180910390fd5b60076000815480929190610ae290613201565b9190505550610af3336007546119e8565b60018360000b03610ccc5760006040518061010001604052806040518060400160405280600481526020017f63756265000000000000000000000000000000000000000000000000000000008152508152602001600160000b8152602001600160000b8152602001600160000b81526020018460000b8152602001600360000b81526020018360000b81526020016000800b8152509050600b8190806001815401808255809150506001900390600052602060002090600202016000909190919091506000820151816000019081610bcb91906133f5565b5060208201518160010160006101000a81548160ff021916908360000b60ff16021790555060408201518160010160016101000a81548160ff021916908360000b60ff16021790555060608201518160010160026101000a81548160ff021916908360000b60ff16021790555060808201518160010160036101000a81548160ff021916908360000b60ff16021790555060a08201518160010160046101000a81548160ff021916908360000b60ff16021790555060c08201518160010160056101000a81548160ff021916908360000b60ff16021790555060e08201518160010160066101000a81548160ff021916908360000b60ff1602179055505050505b60028360000b03610ea55760006040518061010001604052806040518060400160405280600481526020017f636f6e65000000000000000000000000000000000000000000000000000000008152508152602001600160000b8152602001600360000b8152602001602060000b81526020018460000b8152602001600360000b81526020018360000b81526020016000800b8152509050600b8190806001815401808255809150506001900390600052602060002090600202016000909190919091506000820151816000019081610da491906133f5565b5060208201518160010160006101000a81548160ff021916908360000b60ff16021790555060408201518160010160016101000a81548160ff021916908360000b60ff16021790555060608201518160010160026101000a81548160ff021916908360000b60ff16021790555060808201518160010160036101000a81548160ff021916908360000b60ff16021790555060a08201518160010160046101000a81548160ff021916908360000b60ff16021790555060c08201518160010160056101000a81548160ff021916908360000b60ff16021790555060e08201518160010160066101000a81548160ff021916908360000b60ff1602179055505050505b60038360000b0361107f5760006040518061010001604052806040518060400160405280600881526020017f63796c696e6465720000000000000000000000000000000000000000000000008152508152602001600160000b8152602001600160000b8152602001600360000b81526020018460000b8152602001600360000b81526020018360000b8152602001602060000b8152509050600b8190806001815401808255809150506001900390600052602060002090600202016000909190919091506000820151816000019081610f7e91906133f5565b5060208201518160010160006101000a81548160ff021916908360000b60ff16021790555060408201518160010160016101000a81548160ff021916908360000b60ff16021790555060608201518160010160026101000a81548160ff021916908360000b60ff16021790555060808201518160010160036101000a81548160ff021916908360000b60ff16021790555060a08201518160010160046101000a81548160ff021916908360000b60ff16021790555060c08201518160010160056101000a81548160ff021916908360000b60ff16021790555060e08201518160010160066101000a81548160ff021916908360000b60ff1602179055505050505b818061108a906134c7565b925050505050565b600073ffffffffffffffffffffffffffffffffffffffff168273ffffffffffffffffffffffffffffffffffffffff16036111045760006040517f64a0ae920000000000000000000000000000000000000000000000000000000081526004016110fb919061298c565b60405180910390fd5b600061111883836111136119ce565b611a06565b90508373ffffffffffffffffffffffffffffffffffffffff168173ffffffffffffffffffffffffffffffffffffffff161461118e578382826040517f64283d7b0000000000000000000000000000000000000000000000000000000081526004016111859392919061350f565b60405180910390fd5b50505050565b61119c611c20565b60006111a66114ec565b90508073ffffffffffffffffffffffffffffffffffffffff166108fc479081150290604051600060405180830381858888f193505050501580156111ee573d6000803e3d6000fd5b5050565b61120d838383604051806020016040528060008152506115be565b505050565b600061121d82611909565b9050919050565b6060600a60003373ffffffffffffffffffffffffffffffffffffffff1673ffffffffffffffffffffffffffffffffffffffff168152602001908152602001600020805480602002602001604051908101604052809291908181526020016000905b828210156114155783829060005260206000209060020201604051806101000160405290816000820180546112b99061305d565b80601f01602080910402602001604051908101604052809291908181526020018280546112e59061305d565b80156113325780601f1061130757610100808354040283529160200191611332565b820191906000526020600020905b81548152906001019060200180831161131557829003601f168201915b505050505081526020016001820160009054906101000a900460000b60000b60000b81526020016001820160019054906101000a900460000b60000b60000b81526020016001820160029054906101000a900460000b60000b60000b81526020016001820160039054906101000a900460000b60000b60000b81526020016001820160049054906101000a900460000b60000b60000b81526020016001820160059054906101000a900460000b60000b60000b81526020016001820160069054906101000a900460000b60000b60000b8152505081526020019060010190611285565b50505050905090565b60008073ffffffffffffffffffffffffffffffffffffffff168273ffffffffffffffffffffffffffffffffffffffff16036114915760006040517f89c62b64000000000000000000000000000000000000000000000000000000008152600401611488919061298c565b60405180910390fd5b600360008373ffffffffffffffffffffffffffffffffffffffff1673ffffffffffffffffffffffffffffffffffffffff168152602001908152602001600020549050919050565b6114e0611c20565b6114ea6000611ca7565b565b6000600660009054906101000a900473ffffffffffffffffffffffffffffffffffffffff16905090565b6060600180546115259061305d565b80601f01602080910402602001604051908101604052809291908181526020018280546115519061305d565b801561159e5780601f106115735761010080835404028352916020019161159e565b820191906000526020600020905b81548152906001019060200180831161158157829003601f168201915b5050505050905090565b6115ba6115b36119ce565b8383611d6d565b5050565b6115c9848484611092565b6115d584848484611edc565b50505050565b60606115e682611909565b5060006115f1612093565b90506000815111611611576040518060200160405280600081525061163c565b8061161b846120aa565b60405160200161162c929190613582565b6040516020818303038152906040525b915050919050565b60085481565b6000600560008473ffffffffffffffffffffffffffffffffffffffff1673ffffffffffffffffffffffffffffffffffffffff16815260200190815260200160002060008373ffffffffffffffffffffffffffffffffffffffff1673ffffffffffffffffffffffffffffffffffffffff16815260200190815260200160002060009054906101000a900460ff16905092915050565b600b81815481106116ee57600080fd5b90600052602060002090600202016000915090508060000180546117119061305d565b80601f016020809104026020016040519081016040528092919081815260200182805461173d9061305d565b801561178a5780601f1061175f5761010080835404028352916020019161178a565b820191906000526020600020905b81548152906001019060200180831161176d57829003601f168201915b5050505050908060010160009054906101000a900460000b908060010160019054906101000a900460000b908060010160029054906101000a900460000b908060010160039054906101000a900460000b908060010160049054906101000a900460000b908060010160059054906101000a900460000b908060010160069054906101000a900460000b905088565b611821611c20565b600073ffffffffffffffffffffffffffffffffffffffff168173ffffffffffffffffffffffffffffffffffffffff16036118935760006040517f1e4fbdf700000000000000000000000000000000000000000000000000000000815260040161188a919061298c565b60405180910390fd5b61189c81611ca7565b50565b60007f01ffc9a7000000000000000000000000000000000000000000000000000000007bffffffffffffffffffffffffffffffffffffffffffffffffffffffff1916827bffffffffffffffffffffffffffffffffffffffffffffffffffffffff1916149050919050565b60008061191583612178565b9050600073ffffffffffffffffffffffffffffffffffffffff168173ffffffffffffffffffffffffffffffffffffffff160361198857826040517f7e27328900000000000000000000000000000000000000000000000000000000815260040161197f9190612a22565b60405180910390fd5b80915050919050565b60006004600083815260200190815260200160002060009054906101000a900473ffffffffffffffffffffffffffffffffffffffff169050919050565b600033905090565b6119e383838360016121b5565b505050565b611a0282826040518060200160405280600081525061237a565b5050565b600080611a1284612178565b9050600073ffffffffffffffffffffffffffffffffffffffff168373ffffffffffffffffffffffffffffffffffffffff1614611a5457611a53818486612396565b5b600073ffffffffffffffffffffffffffffffffffffffff168173ffffffffffffffffffffffffffffffffffffffff1614611ae557611a966000856000806121b5565b6001600360008373ffffffffffffffffffffffffffffffffffffffff1673ffffffffffffffffffffffffffffffffffffffff168152602001908152602001600020600082825403925050819055505b600073ffffffffffffffffffffffffffffffffffffffff168573ffffffffffffffffffffffffffffffffffffffff1614611b68576001600360008773ffffffffffffffffffffffffffffffffffffffff1673ffffffffffffffffffffffffffffffffffffffff168152602001908152602001600020600082825401925050819055505b846002600086815260200190815260200160002060006101000a81548173ffffffffffffffffffffffffffffffffffffffff021916908373ffffffffffffffffffffffffffffffffffffffff160217905550838573ffffffffffffffffffffffffffffffffffffffff168273ffffffffffffffffffffffffffffffffffffffff167fddf252ad1be2c89b69c2b068fc378daa952ba7f163c4a11628f55a4df523b3ef60405160405180910390a4809150509392505050565b611c286119ce565b73ffffffffffffffffffffffffffffffffffffffff16611c466114ec565b73ffffffffffffffffffffffffffffffffffffffff1614611ca557611c696119ce565b6040517f118cdaa7000000000000000000000000000000000000000000000000000000008152600401611c9c919061298c565b60405180910390fd5b565b6000600660009054906101000a900473ffffffffffffffffffffffffffffffffffffffff16905081600660006101000a81548173ffffffffffffffffffffffffffffffffffffffff021916908373ffffffffffffffffffffffffffffffffffffffff1602179055508173ffffffffffffffffffffffffffffffffffffffff168173ffffffffffffffffffffffffffffffffffffffff167f8be0079c531659141344cd1fd0a4f28419497f9722a3daafe3b4186f6b6457e060405160405180910390a35050565b600073ffffffffffffffffffffffffffffffffffffffff168273ffffffffffffffffffffffffffffffffffffffff1603611dde57816040517f5b08ba18000000000000000000000000000000000000000000000000000000008152600401611dd5919061298c565b60405180910390fd5b80600560008573ffffffffffffffffffffffffffffffffffffffff1673ffffffffffffffffffffffffffffffffffffffff16815260200190815260200160002060008473ffffffffffffffffffffffffffffffffffffffff1673ffffffffffffffffffffffffffffffffffffffff16815260200190815260200160002060006101000a81548160ff0219169083151502179055508173ffffffffffffffffffffffffffffffffffffffff168373ffffffffffffffffffffffffffffffffffffffff167f17307eab39ab6107e8899845ad3d59bd9653f200f220920489ca2b5937696c3183604051611ecf919061281b565b60405180910390a3505050565b60008373ffffffffffffffffffffffffffffffffffffffff163b111561208d578273ffffffffffffffffffffffffffffffffffffffff1663150b7a02611f206119ce565b8685856040518563ffffffff1660e01b8152600401611f4294939291906135fb565b6020604051808303816000875af1925050508015611f7e57506040513d601f19601f82011682018060405250810190611f7b919061365c565b60015b612002573d8060008114611fae576040519150601f19603f3d011682016040523d82523d6000602084013e611fb3565b606091505b506000815103611ffa57836040517f64a0ae92000000000000000000000000000000000000000000000000000000008152600401611ff1919061298c565b60405180910390fd5b805181602001fd5b63150b7a0260e01b7bffffffffffffffffffffffffffffffffffffffffffffffffffffffff1916817bffffffffffffffffffffffffffffffffffffffffffffffffffffffff19161461208b57836040517f64a0ae92000000000000000000000000000000000000000000000000000000008152600401612082919061298c565b60405180910390fd5b505b50505050565b606060405180602001604052806000815250905090565b6060600060016120b98461245a565b01905060008167ffffffffffffffff8111156120d8576120d7612dac565b5b6040519080825280601f01601f19166020018201604052801561210a5781602001600182028036833780820191505090505b509050600082602001820190505b60011561216d578080600190039150507f3031323334353637383961626364656600000000000000000000000000000000600a86061a8153600a858161216157612160613689565b5b04945060008503612118575b819350505050919050565b60006002600083815260200190815260200160002060009054906101000a900473ffffffffffffffffffffffffffffffffffffffff169050919050565b80806121ee5750600073ffffffffffffffffffffffffffffffffffffffff168273ffffffffffffffffffffffffffffffffffffffff1614155b156123225760006121fe84611909565b9050600073ffffffffffffffffffffffffffffffffffffffff168373ffffffffffffffffffffffffffffffffffffffff161415801561226957508273ffffffffffffffffffffffffffffffffffffffff168173ffffffffffffffffffffffffffffffffffffffff1614155b801561227c575061227a818461164a565b155b156122be57826040517fa9fbf51f0000000000000000000000000000000000000000000000000000000081526004016122b5919061298c565b60405180910390fd5b811561232057838573ffffffffffffffffffffffffffffffffffffffff168273ffffffffffffffffffffffffffffffffffffffff167f8c5be1e5ebec7d5bd14f71427d1e84f3dd0314c0f7b2291e5b200ac8c7c3b92560405160405180910390a45b505b836004600085815260200190815260200160002060006101000a81548173ffffffffffffffffffffffffffffffffffffffff021916908373ffffffffffffffffffffffffffffffffffffffff16021790555050505050565b61238483836125ad565b6123916000848484611edc565b505050565b6123a18383836126a6565b61245557600073ffffffffffffffffffffffffffffffffffffffff168373ffffffffffffffffffffffffffffffffffffffff160361241657806040517f7e27328900000000000000000000000000000000000000000000000000000000815260040161240d9190612a22565b60405180910390fd5b81816040517f177e802f00000000000000000000000000000000000000000000000000000000815260040161244c9291906136b8565b60405180910390fd5b505050565b600080600090507a184f03e93ff9f4daa797ed6e38ed64bf6a1f01000000000000000083106124b8577a184f03e93ff9f4daa797ed6e38ed64bf6a1f01000000000000000083816124ae576124ad613689565b5b0492506040810190505b6d04ee2d6d415b85acef810000000083106124f5576d04ee2d6d415b85acef810000000083816124eb576124ea613689565b5b0492506020810190505b662386f26fc10000831061252457662386f26fc10000838161251a57612519613689565b5b0492506010810190505b6305f5e100831061254d576305f5e100838161254357612542613689565b5b0492506008810190505b612710831061257257612710838161256857612567613689565b5b0492506004810190505b60648310612595576064838161258b5761258a613689565b5b0492506002810190505b600a83106125a4576001810190505b80915050919050565b600073ffffffffffffffffffffffffffffffffffffffff168273ffffffffffffffffffffffffffffffffffffffff160361261f5760006040517f64a0ae92000000000000000000000000000000000000000000000000000000008152600401612616919061298c565b60405180910390fd5b600061262d83836000611a06565b9050600073ffffffffffffffffffffffffffffffffffffffff168173ffffffffffffffffffffffffffffffffffffffff16146126a15760006040517f73c6ac6e000000000000000000000000000000000000000000000000000000008152600401612698919061298c565b60405180910390fd5b505050565b60008073ffffffffffffffffffffffffffffffffffffffff168373ffffffffffffffffffffffffffffffffffffffff161415801561275e57508273ffffffffffffffffffffffffffffffffffffffff168473ffffffffffffffffffffffffffffffffffffffff16148061271f575061271e848461164a565b5b8061275d57508273ffffffffffffffffffffffffffffffffffffffff1661274583611991565b73ffffffffffffffffffffffffffffffffffffffff16145b5b90509392505050565b6000604051905090565b600080fd5b600080fd5b60007fffffffff0000000000000000000000000000000000000000000000000000000082169050919050565b6127b08161277b565b81146127bb57600080fd5b50565b6000813590506127cd816127a7565b92915050565b6000602082840312156127e9576127e8612771565b5b60006127f7848285016127be565b91505092915050565b60008115159050919050565b61281581612800565b82525050565b6000602082019050612830600083018461280c565b92915050565b600081519050919050565b600082825260208201905092915050565b60005b83811015612870578082015181840152602081019050612855565b60008484015250505050565b6000601f19601f8301169050919050565b600061289882612836565b6128a28185612841565b93506128b2818560208601612852565b6128bb8161287c565b840191505092915050565b600060208201905081810360008301526128e0818461288d565b905092915050565b6000819050919050565b6128fb816128e8565b811461290657600080fd5b50565b600081359050612918816128f2565b92915050565b60006020828403121561293457612933612771565b5b600061294284828501612909565b91505092915050565b600073ffffffffffffffffffffffffffffffffffffffff82169050919050565b60006129768261294b565b9050919050565b6129868161296b565b82525050565b60006020820190506129a1600083018461297d565b92915050565b6129b08161296b565b81146129bb57600080fd5b50565b6000813590506129cd816129a7565b92915050565b600080604083850312156129ea576129e9612771565b5b60006129f8858286016129be565b9250506020612a0985828601612909565b9150509250929050565b612a1c816128e8565b82525050565b6000602082019050612a376000830184612a13565b92915050565b600081519050919050565b600082825260208201905092915050565b6000819050602082019050919050565b600082825260208201905092915050565b6000612a8582612836565b612a8f8185612a69565b9350612a9f818560208601612852565b612aa88161287c565b840191505092915050565b60008160000b9050919050565b612ac981612ab3565b82525050565b6000610100830160008301518482036000860152612aed8282612a7a565b9150506020830151612b026020860182612ac0565b506040830151612b156040860182612ac0565b506060830151612b286060860182612ac0565b506080830151612b3b6080860182612ac0565b5060a0830151612b4e60a0860182612ac0565b5060c0830151612b6160c0860182612ac0565b5060e0830151612b7460e0860182612ac0565b508091505092915050565b6000612b8b8383612acf565b905092915050565b6000602082019050919050565b6000612bab82612a3d565b612bb58185612a48565b935083602082028501612bc785612a59565b8060005b85811015612c035784840389528151612be48582612b7f565b9450612bef83612b93565b925060208a01995050600181019050612bcb565b50829750879550505050505092915050565b60006020820190508181036000830152612c2f8184612ba0565b905092915050565b612c4081612ab3565b8114612c4b57600080fd5b50565b600081359050612c5d81612c37565b92915050565b600080600060608486031215612c7c57612c7b612771565b5b6000612c8a86828701612c4e565b9350506020612c9b86828701612c4e565b9250506040612cac86828701612c4e565b9150509250925092565b600080600060608486031215612ccf57612cce612771565b5b6000612cdd868287016129be565b9350506020612cee868287016129be565b9250506040612cff86828701612909565b9150509250925092565b600060208284031215612d1f57612d1e612771565b5b6000612d2d848285016129be565b91505092915050565b612d3f81612800565b8114612d4a57600080fd5b50565b600081359050612d5c81612d36565b92915050565b60008060408385031215612d7957612d78612771565b5b6000612d87858286016129be565b9250506020612d9885828601612d4d565b9150509250929050565b600080fd5b600080fd5b7f4e487b7100000000000000000000000000000000000000000000000000000000600052604160045260246000fd5b612de48261287c565b810181811067ffffffffffffffff82111715612e0357612e02612dac565b5b80604052505050565b6000612e16612767565b9050612e228282612ddb565b919050565b600067ffffffffffffffff821115612e4257612e41612dac565b5b612e4b8261287c565b9050602081019050919050565b82818337600083830152505050565b6000612e7a612e7584612e27565b612e0c565b905082815260208101848484011115612e9657612e95612da7565b5b612ea1848285612e58565b509392505050565b600082601f830112612ebe57612ebd612da2565b5b8135612ece848260208601612e67565b91505092915050565b60008060008060808587031215612ef157612ef0612771565b5b6000612eff878288016129be565b9450506020612f10878288016129be565b9350506040612f2187828801612909565b925050606085013567ffffffffffffffff811115612f4257612f41612776565b5b612f4e87828801612ea9565b91505092959194509250565b60008060408385031215612f7157612f70612771565b5b6000612f7f858286016129be565b9250506020612f90858286016129be565b9150509250929050565b612fa381612ab3565b82525050565b6000610100820190508181036000830152612fc4818b61288d565b9050612fd3602083018a612f9a565b612fe06040830189612f9a565b612fed6060830188612f9a565b612ffa6080830187612f9a565b61300760a0830186612f9a565b61301460c0830185612f9a565b61302160e0830184612f9a565b9998505050505050505050565b7f4e487b7100000000000000000000000000000000000000000000000000000000600052602260045260246000fd5b6000600282049050600182168061307557607f821691505b6020821081036130885761308761302e565b5b50919050565b7f537570706c792065786365656473206d6178696d756d00000000000000000000600082015250565b60006130c4601683612841565b91506130cf8261308e565b602082019050919050565b600060208201905081810360008301526130f3816130b7565b9050919050565b7f496e73756666696369656e74205061796d656e74000000000000000000000000600082015250565b6000613130601483612841565b915061313b826130fa565b602082019050919050565b6000602082019050818103600083015261315f81613123565b9050919050565b7f496e766169642073686170652073657269616c206e756d626572000000000000600082015250565b600061319c601a83612841565b91506131a782613166565b602082019050919050565b600060208201905081810360008301526131cb8161318f565b9050919050565b7f4e487b7100000000000000000000000000000000000000000000000000000000600052601160045260246000fd5b600061320c826128e8565b91507fffffffffffffffffffffffffffffffffffffffffffffffffffffffffffffffff820361323e5761323d6131d2565b5b600182019050919050565b60008190508160005260206000209050919050565b60006020601f8301049050919050565b600082821b905092915050565b6000600883026132ab7fffffffffffffffffffffffffffffffffffffffffffffffffffffffffffffffff8261326e565b6132b5868361326e565b95508019841693508086168417925050509392505050565b6000819050919050565b60006132f26132ed6132e8846128e8565b6132cd565b6128e8565b9050919050565b6000819050919050565b61330c836132d7565b613320613318826132f9565b84845461327b565b825550505050565b600090565b613335613328565b613340818484613303565b505050565b5b818110156133645761335960008261332d565b600181019050613346565b5050565b601f8211156133a95761337a81613249565b6133838461325e565b81016020851015613392578190505b6133a661339e8561325e565b830182613345565b50505b505050565b600082821c905092915050565b60006133cc600019846008026133ae565b1980831691505092915050565b60006133e583836133bb565b9150826002028217905092915050565b6133fe82612836565b67ffffffffffffffff81111561341757613416612dac565b5b613421825461305d565b61342c828285613368565b600060209050601f83116001811461345f576000841561344d578287015190505b61345785826133d9565b8655506134bf565b601f19841661346d86613249565b60005b8281101561349557848901518255600182019150602085019450602081019050613470565b868310156134b257848901516134ae601f8916826133bb565b8355505b6001600288020188555050505b505050505050565b60006134d282612ab3565b91507fffffffffffffffffffffffffffffffffffffffffffffffffffffffffffffff808203613504576135036131d2565b5b600182039050919050565b6000606082019050613524600083018661297d565b6135316020830185612a13565b61353e604083018461297d565b949350505050565b600081905092915050565b600061355c82612836565b6135668185613546565b9350613576818560208601612852565b80840191505092915050565b600061358e8285613551565b915061359a8284613551565b91508190509392505050565b600081519050919050565b600082825260208201905092915050565b60006135cd826135a6565b6135d781856135b1565b93506135e7818560208601612852565b6135f08161287c565b840191505092915050565b6000608082019050613610600083018761297d565b61361d602083018661297d565b61362a6040830185612a13565b818103606083015261363c81846135c2565b905095945050505050565b600081519050613656816127a7565b92915050565b60006020828403121561367257613671612771565b5b600061368084828501613647565b91505092915050565b7f4e487b7100000000000000000000000000000000000000000000000000000000600052601260045260246000fd5b60006040820190506136cd600083018561297d565b6136da6020830184612a13565b939250505056fea2646970667358221220ea620e1b75ff5cc8a024bcd1b2786c4894c3013f1d57c74cb87849b7f103414064736f6c63430008140033",
  "linkReferences": {},
  "deployedLinkReferences": {}
}